:100000000C9463000C9499020C94C6020C948B001F
:100010000C948B000C948B000C948B000C94420677
:100020000C948B000C948B000C948B000C948B0024
:100030000C948B000C948B000C948B000C948B0014
:100040000C941D010C948B000C9480030C948B0079
:100050000C948B000C948B000C948B000C948B00F4
:100060000C948B000C948B000000000024002700EF
:100070002A0000000000250028002B0000000000DE
:1000800023002600290004040404040404040202DA
:100090000202020203030303030301020408102007
:1000A0004080010204081020010204081020000012
:1000B0000007000201000003040600000000000029
:1000C00000000200050411241FBECFEFD8E0DEBF00
:1000D000CDBF11E0A0E0B1E0E4EFF1E102C0059096
:1000E0000D92A631B107D9F711E0A6E1B1E001C048
:1000F0001D92A13DB107E1F710E0C6ECD0E004C0CD
:100100002297FE010E94F408C43CD107C9F70E945F
:1001100016010C94F8080C9400008091160160E020
:100120000E943B0287EB91E040E855E260E070E01E
:100130000E94A803089580E090E0DC0180931E01F6
:1001400090931F01A0932001B093210110921901F7
:100150001092180123C0809116010E94ED019C01AC
:10016000B901882777FD8095982F0E94A207609398
:100170001A0170931B0180931C0190931D0168EE7E
:1001800073E080E090E00E948B01809118019091D3
:10019000190101969093190180931801809118011B
:1001A0009091190118161906B4F660911A01709110
:1001B0001B0180911C0190911D0120E030E048E876
:1001C00053E40E949E0620E030E048E252E40E94A0
:1001D000520820E030E042E852E40E94070720E0A5
:1001E00030E040E951E40E949F06B82FA92FF62F76
:1001F000E72FCD012F2F3E2F492F582F209322017B
:1002000030932301409324015093250187EB91E023
:100210009D014F2F5E2F632F722F22E030E00E944E
:10022000080687EB91E00E94470508950E94B201FD
:100230000E948D000E949B00FDCF1F920F920FB66F
:100240000F9211242F933F938F939F93AF93BF935C
:1002500080912A0190912B01A0912C01B0912D0148
:1002600030912E010196A11DB11D232F2D5F2D3739
:1002700020F02D570196A11DB11D20932E018093D2
:100280002A0190932B01A0932C01B0932D01809112
:10029000260190912701A0912801B0912901019692
:1002A000A11DB11D8093260190932701A0932801E1
:1002B000B0932901BF91AF919F918F913F912F9161
:1002C0000F900FBE0F901F9018959FB7F894209134
:1002D000260130912701409128015091290186B5CE
:1002E000A89B06C08F3F21F02F5F3F4F4F4F5F4FBE
:1002F0009FBF542F432F322F2227280F311D411D1E
:10030000511D82E0220F331F441F551F8A95D1F7DC
:10031000B901CA010895EF92FF920F931F93CF93F3
:10032000DF937B018C010E946501EB010FC00E94ED
:1003300065016C1B7D0B83E0683E780738F00894FC
:10034000E108F10801091109C851DC4FE114F10479
:100350000105110561F7DF91CF911F910F91FF907A
:10036000EF900895789484B5826084BD84B58160EF
:1003700084BD85B5826085BD85B5816085BDEEE6AD
:10038000F0E0808181608083E1E8F0E0108280818C
:1003900082608083808181608083E0E8F0E08081FA
:1003A00081608083E1EBF0E0808184608083E0EB1A
:1003B000F0E0808181608083EAE7F0E08081846002
:1003C000808380818260808380818160808380815E
:1003D000806880831092C10008958E3008F08E509E
:1003E0008770909102019295990F990F907C982BAC
:1003F00090937C0080917A00806480937A00809151
:100400007A0086FDFCCF2091780030917900932FFF
:1004100080E030E0282B392BC9010895833071F03A
:10042000843028F48130A1F0823021F514C0863068
:10043000B1F08730D1F08430E9F404C080918000BD
:100440008F7703C0809180008F7D80938000089516
:1004500084B58F7702C084B58F7D84BD0895809167
:10046000B0008F778093B00008958091B0008F7DA9
:100470008093B000089590E0FC01E656FF4F249170
:10048000FC01EA57FF4FE491EE23C1F0F0E0EE0FDC
:10049000FF1FE859FF4F85919491DC01662341F4D9
:1004A0009FB7F8948C91209582238C939FBF0895D9
:1004B0009FB7F8948C91822B8C939FBF08950F93D4
:1004C0001F93DF93CF930F92CDB7DEB7282F30E085
:1004D000F901E255FF4F8491F901E656FF4F14915F
:1004E0002A573F4FF90104910023E9F0882321F0B6
:1004F00069830E940E026981E02FF0E0EE0FFF1F7A
:10050000EE58FF4F85919491DC01662331F49FB73B
:10051000F8948C911095812304C09FB7F8948C9126
:10052000812B8C939FBF0F90CF91DF911F910F91E3
:1005300008951F920F920FB60F9211242F933F939D
:100540004F935F936F937F938F939F93AF93BF93DB
:10055000EF93FF9380912F0190913001009729F044
:10056000E0912F01F09130010995FF91EF91BF913A
:10057000AF919F918F917F916F915F914F913F913B
:100580002F910F900FBE0F901F9018951F920F92F2
:100590000FB60F9211242F933F934F935F936F9356
:1005A0007F938F939F93AF93BF93EF93FF9380912C
:1005B000310190913201009729F0E0913101F091E1
:1005C00032010995FF91EF91BF91AF919F918F916A
:1005D0007F916F915F914F913F912F910F900FBE3F
:1005E0000F901F901895FC0182819381FC01E058C7
:1005F000FF4F208131818E579F4FFC018081918177
:10060000281B390B2F773070C9010895FC018281B6
:100610009381FC01EE57FF4F20813181FC01E058AE
:10062000FF4F408151814217530731F0820F931FD2
:10063000FC01208130E002C02FEF3FEFC901089597
:10064000DC0112962D913C911397F901EE57FF4F63
:1006500080819181D901A058BF4F4D915C91119734
:100660004817590759F0280F391FD9012C910196C5
:100670008F7790709183808330E002C02FEF3FEF3F
:10068000C9010895DC0112968D919C911397FC018C
:10069000E058FF4F8E579F4FDC018D919C91119731
:1006A000918380830895FC01A085B18521898C9177
:1006B00090E0022E02C0959587950A94E2F780FF9C
:1006C000F6CF0484F585E02D60830895FB01E058A2
:1006D000FF4F408151819A012F5F3F4F2F7730703C
:1006E000DB01AE57BF4F0D90BC91A02D2A173B07E1
:1006F00031F0640F751FDB018C93318320830895E3
:100700001F920F920FB60F9211242F933F934F9386
:100710005F936F937F938F939F93AF93BF93EF9369
:10072000FF938091C60063E371E00E946603FF912E
:10073000EF91BF91AF919F918F917F916F915F9159
:100740004F913F912F910F900FBE0F901F901895D2
:10075000CF93DF93EC019A01AB01E885F985203056
:1007600081EE380780E0480780E0580709F449C067
:1007700081E090E00A8802C0880F991F0A94E2F78E
:10078000808360E079E08DE390E00E94D7082150FB
:10079000304040405040CA01B90122E030E040E022
:1007A00050E00E94D708EC81FD813083EE81FF810B
:1007B0002083EA85FB85408181E090E09C010E84E6
:1007C00002C0220F331F0A94E2F7422B4083EA85CE
:1007D000FB8540819C010F8402C0220F331F0A94C5
:1007E000E2F7422B4083EA85FB852081088802C01E
:1007F000880F991F0A94E2F7282B2083DF91CF916D
:100800000895108220E130E0CECF88E091E090930F
:10081000B8018093B70183E391E09093BA0180938C
:10082000B90185EC90E09093BC018093BB0184EC0E
:1008300090E09093BE018093BD0180EC90E0909396
:10084000C0018093BF0181EC90E09093C20180933E
:10085000C10186EC90E09093C4018093C30184E0D1
:100860008093C50183E08093C60187E08093C70130
:1008700085E08093C80181E08093C90108950F93BA
:100880001F93CF93DF93EC01062F172F07C0E8814A
:10089000F9810190F081E02DCE010995F801619177
:1008A0008F016623A1F7DF91CF911F910F910895DA
:1008B000EF92FF920F931F93CF93DF937C01EB0195
:1008C0008A010BC06991D701ED91FC910190F081F3
:1008D000E02DC7010995015010400115110591F750
:1008E000DF91CF911F910F91FF90EF900895DC0160
:1008F000ED91FC910280F381E02D099508956F92AE
:100900007F928F929F92AF92BF92CF92DF92EF929F
:10091000FF920F931F93DF93CF93CDB7DEB7A097CE
:100920000FB6F894DEBF0FBECDBF5C01CB01BA019C
:10093000611571058105910551F4C50140E350E051
:1009400060E070E020E030E00E94110546C06E01DA
:100950000894C11CD11CEE24FF248701622E772449
:1009600088249924A40193010E94B508F60161939B
:100970006F010894E11CF11C011D111DB901CA0190
:10098000611571058105910569F7D801C7010197C6
:10099000A109B1096E010894C11CD11CC80ED91E51
:1009A00017C0F60140814A3010F4405D01C0495C37
:1009B00050E060E070E0C50120E030E00E941105E9
:1009C0000894E108F108010911090894C108D10847
:1009D000E114F1040105110521F7A0960FB6F89472
:1009E000DEBF0FBECDBFCF91DF911F910F91FF9062
:1009F000EF90DF90CF90BF90AF909F908F907F90BF
:100A00006F9008952115310549F4DC01ED91FC91B9
:100A10000190F081E02D642F099508950E947F04D4
:100A20000895EF92FF920F931F93CF93DF93EC0102
:100A30007A018B012115310541F4E881F98101909A
:100A4000F081E02D642F09951BC02A303105B1F4E7
:100A500077FF10C04DE250E060E070E020E030E051
:100A60000E94110510950095F094E094E11CF11C92
:100A7000011D111DCE01B801A7012AE00E947F04CB
:100A8000DF91CF911F910F91FF90EF900895CF9339
:100A9000DF93EC014DE050E060E070E020E030E0FA
:100AA0000E941105CE014AE050E060E070E020E0D5
:100AB00030E00E941105DF91CF9108959F92AF928F
:100AC000BF92CF92DF92EF92FF920F931F93CF933B
:100AD000DF93EC017A018B01D22ECB01BA0120E029
:100AE00030E0A9010E94030787FF0DC0CE014DE24F
:100AF00050E060E070E020E030E00E94110517FB5C
:100B0000109517F91095CC2450E040E030E02FE329
:100B100011C0DA01F9016B2F742F8F2F922F20E073
:100B200030E040E251E40E940707562F472F382F4C
:100B3000292FC394CD1468F3C801B701DA01F90174
:100B40002B2F342F4F2F5E2F0E949F065B01F82E14
:100B5000092F7B2D0E947407C62EE72E182F992E81
:100B60000E94A0079B01AC016A2D7B2D8F2D902F39
:100B70000E949E065B01F82E092FCE014C2D5E2DA2
:100B8000612F792D2AE030E00E940205DD2091F1ED
:100B9000CE0160E071E00E9477042CC06A2D7B2DAD
:100BA0008F2D902F20E030E040E251E40E94520867
:100BB000C62EB72EA82E992E0E946F077B01002704
:100BC000F7FC0095102FCE01B801A7012AE030E014
:100BD0000E941105C801B7010E94A2079B01AC0148
:100BE0006C2D7B2D8A2D992D0E949E065B01F82E7F
:100BF000092FDA94DD2091F6DF91CF911F910F91AB
:100C0000FF90EF90DF90CF90BF90AF909F900895AE
:100C10000E945E050895813041F0813018F08230E5
:100C2000D1F409C010926E00089580916F008D7FFD
:100C300080936F000895809170008D7F8093700085
:100C400081E08093B0008091B100887F84608093C0
:100C5000B1001092B30008951F93182F80910301E3
:100C6000811739F4E2ECF0E084919FEF9093030157
:100C700001C08FEF0E940B06812F60E00E945F028F
:100C80001F9108951F920F920FB60F9211242F9368
:100C90003F934F935F936F937F938F939F93AF9304
:100CA000BF93EF93FF938091CA019091CB01A091E4
:100CB000CC01B091CD010097A105B10551F1E091B2
:100CC000CE01F091CF0180819091D001892780835E
:100CD0008091CA019091CB01A091CC01B091CD013E
:100CE000181619061A061B06C4F48091CA019091C1
:100CF000CB01A091CC01B091CD010197A109B1091F
:100D00008093CA019093CB01A093CC01B093CD0105
:100D100004C0809103010E942C06FF91EF91BF91C6
:100D2000AF919F918F917F916F915F914F913F9183
:100D30002F910F900FBE0F901F9018955058BB2702
:100D4000AA270ED075C166D130F06BD120F031F4F6
:100D50009F3F11F41EF45BC10EF4E095E7FB51C117
:100D6000E92F77D180F3BA176207730784079507D5
:100D700018F071F49EF58FC10EF4E0950B2EBA2F8A
:100D8000A02D0B01B90190010C01CA01A001112491
:100D9000FF27591B99F0593F50F4503E68F11A163D
:100DA000F040A22F232F342F4427585FF3CF4695CE
:100DB00037952795A795F0405395C9F77EF41F16F0
:100DC000BA0B620B730B840BBAF09150A1F0FF0FBA
:100DD000BB1F661F771F881FC2F70EC0BA0F621FA6
:100DE000731F841F48F4879577956795B795F79596
:100DF0009E3F08F0B3CF9395880F08F09927EE0F28
:100E0000979587950895D9D008F481E008950CD07E
:100E10000FC107D140F0FED030F021F45F3F19F050
:100E2000F0C0511139C1F3C014D198F39923C9F31B
:100E30005523B1F3951B550BBB27AA2762177307E0
:100E4000840738F09F5F5F4F220F331F441FAA1F94
:100E5000A9F333D00E2E3AF0E0E830D09150504054
:100E6000E695001CCAF729D0FE2F27D0660F771F02
:100E7000881FBB1F261737074807AB07B0E809F0E4
:100E8000BB0B802DBF01FF2793585F4F2AF09E3F79
:100E9000510568F0B6C000C15F3FECF3983EDCF34B
:100EA000869577956795B795F7959F5FC9F7880FF2
:100EB000911D9695879597F90895E1E0660F771F44
:100EC000881FBB1F621773078407BA0720F0621BD5
:100ED000730B840BBA0BEE1F88F7E095089504D0CE
:100EE0006894B111D9C00895BCD088F09F5790F094
:100EF000B92F9927B751A0F0D1F0660F771F881F3F
:100F0000991F1AF0BA95C9F712C0B13081F0C3D059
:100F1000B1E00895C0C0672F782F8827B85F39F0F7
:100F2000B93FCCF3869577956795B395D9F73EF49D
:100F300090958095709561957F4F8F4F9F4F089545
:100F4000E89409C097FB3EF4909580957095619563
:100F50007F4F8F4F9F4F9923A9F0F92F96E9BB2719
:100F60009395F695879577956795B795F111F8CF95
:100F7000FAF4BB0F11F460FF1BC06F5F7F4F8F4F00
:100F80009F4F16C0882311F096E911C0772321F0F6
:100F90009EE8872F762F05C0662371F096E8862F8E
:100FA00070E060E02AF09A95660F771F881FDAF7E5
:100FB000880F9695879597F90895990F0008550F12
:100FC000AA0BE0E8FEEF16161706E807F907C0F0CF
:100FD00012161306E407F50798F0621B730B840BD7
:100FE000950B39F40A2661F0232B242B252B21F4B1
:100FF00008950A2609F4A140A6958FEF811D811D51
:10100000089597F99F6780E870E060E008959FEF8A
:1010100080EC089500240A9416161706180609068F
:10102000089500240A94121613061406050608955E
:10103000092E0394000C11F4882352F0BB0F40F4E6
:10104000BF2B11F460FF04C06F5F7F4F8F4F9F4F26
:10105000089557FD9058440F551F59F05F3F71F0A8
:101060004795880F97FB991F61F09F3F79F087950F
:101070000895121613061406551FF2CF4695F1DF98
:1010800008C0161617061806991FF1CF8695710528
:10109000610508940895E894BB2766277727CB015C
:1010A00097F908950BD0C4CFB5DF28F0BADF18F058
:1010B000952309F0A6CFABCF1124EECFCADFA0F362
:1010C000959FD1F3950F50E0551F629FF001729FDD
:1010D000BB27F00DB11D639FAA27F00DB11DAA1FFC
:1010E000649F6627B00DA11D661F829F2227B00D49
:1010F000A11D621F739FB00DA11D621F839FA00DD4
:10110000611D221F749F3327A00D611D231F849F23
:10111000600D211D822F762F6A2F11249F5750407A
:101120008AF0E1F088234AF0EE0FFF1FBB1F661F15
:10113000771F881F91505040A9F79E3F510570F0CE
:1011400060CFAACF5F3FECF3983EDCF386957795AE
:101150006795B795F795E7959F5FC1F7FE2B880FC9
:10116000911D9695879597F90895A1E21A2EAA1BCD
:10117000BB1BFD010DC0AA1FBB1FEE1FFF1FA21747
:10118000B307E407F50720F0A21BB30BE40BF50B44
:10119000661F771F881F991F1A9469F760957095CD
:1011A000809590959B01AC01BD01CF01089597FBFF
:1011B000092E05260ED057FD04D0D7DF0AD0001C1B
:1011C00038F450954095309521953F4F4F4F5F4FE4
:1011D0000895F6F790958095709561957F4F8F4FA4
:1011E0009F4F0895EE0FFF1F0590F491E02D099495
:0411F000F894FFCFA1
:1011F4002E0001FF0000000053033F045804F302D3
:0612040020030603420373
:00000001FF
